{
  "contractName": "KryptoBird",
  "abi": [
    {
      "inputs": [],
      "stateMutability": "nonpayable",
      "type": "constructor"
    },
    {
      "anonymous": false,
      "inputs": [
        {
          "indexed": true,
          "internalType": "address",
          "name": "_owner",
          "type": "address"
        },
        {
          "indexed": true,
          "internalType": "address",
          "name": "_approved",
          "type": "address"
        },
        {
          "indexed": true,
          "internalType": "uint256",
          "name": "_tokenId",
          "type": "uint256"
        }
      ],
      "name": "Approval",
      "type": "event"
    },
    {
      "anonymous": false,
      "inputs": [
        {
          "indexed": true,
          "internalType": "address",
          "name": "_from",
          "type": "address"
        },
        {
          "indexed": true,
          "internalType": "address",
          "name": "_to",
          "type": "address"
        },
        {
          "indexed": true,
          "internalType": "uint256",
          "name": "_tokenId",
          "type": "uint256"
        }
      ],
      "name": "Transfer",
      "type": "event"
    },
    {
      "inputs": [],
      "name": "_name",
      "outputs": [
        {
          "internalType": "string",
          "name": "",
          "type": "string"
        }
      ],
      "stateMutability": "view",
      "type": "function"
    },
    {
      "inputs": [],
      "name": "_symbol",
      "outputs": [
        {
          "internalType": "string",
          "name": "",
          "type": "string"
        }
      ],
      "stateMutability": "view",
      "type": "function"
    },
    {
      "inputs": [
        {
          "internalType": "address",
          "name": "_to",
          "type": "address"
        },
        {
          "internalType": "uint256",
          "name": "tokenId",
          "type": "uint256"
        }
      ],
      "name": "approve",
      "outputs": [],
      "stateMutability": "nonpayable",
      "type": "function"
    },
    {
      "inputs": [
        {
          "internalType": "address",
          "name": "_owner",
          "type": "address"
        }
      ],
      "name": "balanceOf",
      "outputs": [
        {
          "internalType": "uint256",
          "name": "",
          "type": "uint256"
        }
      ],
      "stateMutability": "view",
      "type": "function"
    },
    {
      "inputs": [
        {
          "internalType": "uint256",
          "name": "",
          "type": "uint256"
        }
      ],
      "name": "kryptoBirdz",
      "outputs": [
        {
          "internalType": "string",
          "name": "",
          "type": "string"
        }
      ],
      "stateMutability": "view",
      "type": "function"
    },
    {
      "inputs": [],
      "name": "name",
      "outputs": [
        {
          "internalType": "string",
          "name": "",
          "type": "string"
        }
      ],
      "stateMutability": "view",
      "type": "function"
    },
    {
      "inputs": [
        {
          "internalType": "uint256",
          "name": "_tokenId",
          "type": "uint256"
        }
      ],
      "name": "ownerOf",
      "outputs": [
        {
          "internalType": "address",
          "name": "",
          "type": "address"
        }
      ],
      "stateMutability": "view",
      "type": "function"
    },
    {
      "inputs": [
        {
          "internalType": "bytes4",
          "name": "interfaceId",
          "type": "bytes4"
        }
      ],
      "name": "supportsInterface",
      "outputs": [
        {
          "internalType": "bool",
          "name": "",
          "type": "bool"
        }
      ],
      "stateMutability": "view",
      "type": "function"
    },
    {
      "inputs": [],
      "name": "symbol",
      "outputs": [
        {
          "internalType": "string",
          "name": "",
          "type": "string"
        }
      ],
      "stateMutability": "view",
      "type": "function"
    },
    {
      "inputs": [
        {
          "internalType": "uint256",
          "name": "index",
          "type": "uint256"
        }
      ],
      "name": "tokenByIndex",
      "outputs": [
        {
          "internalType": "uint256",
          "name": "",
          "type": "uint256"
        }
      ],
      "stateMutability": "view",
      "type": "function"
    },
    {
      "inputs": [
        {
          "internalType": "address",
          "name": "owner",
          "type": "address"
        },
        {
          "internalType": "uint256",
          "name": "index",
          "type": "uint256"
        }
      ],
      "name": "tokenOfOwnerByIndex",
      "outputs": [
        {
          "internalType": "uint256",
          "name": "",
          "type": "uint256"
        }
      ],
      "stateMutability": "view",
      "type": "function"
    },
    {
      "inputs": [],
      "name": "totalSupply",
      "outputs": [
        {
          "internalType": "uint256",
          "name": "",
          "type": "uint256"
        }
      ],
      "stateMutability": "view",
      "type": "function"
    },
    {
      "inputs": [
        {
          "internalType": "address",
          "name": "_from",
          "type": "address"
        },
        {
          "internalType": "address",
          "name": "_to",
          "type": "address"
        },
        {
          "internalType": "uint256",
          "name": "_tokenId",
          "type": "uint256"
        }
      ],
      "name": "transferFrom",
      "outputs": [],
      "stateMutability": "nonpayable",
      "type": "function"
    },
    {
      "inputs": [
        {
          "internalType": "string",
          "name": "_kryptoBird",
          "type": "string"
        }
      ],
      "name": "mint",
      "outputs": [],
      "stateMutability": "nonpayable",
      "type": "function"
    }
  ],
  "bytecode": "0x60806040523480156200001157600080fd5b506040518060400160405280600a81526020017f4b727970746f42697264000000000000000000000000000000000000000000008152506040518060400160405280600681526020017f4b424952445a00000000000000000000000000000000000000000000000000008152508181620000b17f01ffc9a7a5cef8baa21ed3c5c0d7e23accb804b619e9333b597f47a0d84076e26200022a60201b60201c565b620001047f95d89b41e2f5f391a79ec54e9d87c79d6e777c63e32c28da95b4e9e4a79250ec7f06fdde0383f15d582d1a74511486c9ddf862a882fb7904b3d9fe9b8b8e58a796186200022a60201b60201c565b81600190805190602001906200011c92919062000301565b5080600290805190602001906200013592919062000301565b505050620001ad7fb642fe57385c30591f4a5d574f2a37c71dee9880879cb99176c8c5e32632dcfa7f6352211e6566aa027e75ac9dbf2423197fbd9b82b9d981a3ab367d355866aa1c7f70a08231b98ef4ca268c9cc3f6b4590e4bfec28280db06bb5d45e689f2a360be18186200022a60201b60201c565b620002227fdb1c3d6df4fa327db0f18f44938ac8bebeca05bd2a9c3eb0f493022181548b887f4f6ccce7c41aed90ec1f1887c4a821594c0f73758d8941d0ccaa2cde813b72987f18160ddd7f15c72528c2f94fd8dfe3c8d5aa26e2c50c7d81f4bc7bee8d4b793218186200022a60201b60201c565b5050620004be565b63ffffffff60e01b817bffffffffffffffffffffffffffffffffffffffffffffffffffffffff19160362000295576040517f08c379a00000000000000000000000000000000000000000000000000000000081526004016200028c9062000438565b60405180910390fd5b6001600080837bffffffffffffffffffffffffffffffffffffffffffffffffffffffff19167bffffffffffffffffffffffffffffffffffffffffffffffffffffffff1916815260200190815260200160002060006101000a81548160ff02191690831515021790555050565b8280546200030f9062000489565b90600052602060002090601f0160209004810192826200033357600085556200037f565b82601f106200034e57805160ff19168380011785556200037f565b828001600101855582156200037f579182015b828111156200037e57825182559160200191906001019062000361565b5b5090506200038e919062000392565b5090565b5b80821115620003ad57600081600090555060010162000393565b5090565b600082825260208201905092915050565b7f4552433136353a20496e76616c696420696e746572666163652072657175657360008201527f7400000000000000000000000000000000000000000000000000000000000000602082015250565b600062000420602183620003b1565b91506200042d82620003c2565b604082019050919050565b60006020820190508181036000830152620004538162000411565b9050919050565b7f4e487b7100000000000000000000000000000000000000000000000000000000600052602260045260246000fd5b60006002820490506001821680620004a257607f821691505b602082108103620004b857620004b76200045a565b5b50919050565b611e5180620004ce6000396000f3fe608060405234801561001057600080fd5b50600436106100ea5760003560e01c80636352211e1161008c57806395d89b411161006657806395d89b4114610283578063b09f1266146102a1578063d28d8852146102bf578063d85d3d27146102dd576100ea565b80636352211e146101f357806370a082311461022357806393ab6e5614610253576100ea565b806318160ddd116100c857806318160ddd1461015957806323b872dd146101775780632f745c59146101935780634f6ccce7146101c3576100ea565b806301ffc9a7146100ef57806306fdde031461011f578063095ea7b31461013d575b600080fd5b6101096004803603810190610104919061131d565b6102f9565b6040516101169190611365565b60405180910390f35b610127610360565b6040516101349190611419565b60405180910390f35b610157600480360381019061015291906114cf565b6103f2565b005b61016161058d565b60405161016e919061151e565b60405180910390f35b610191600480360381019061018c9190611539565b61059a565b005b6101ad60048036038101906101a891906114cf565b6105aa565b6040516101ba919061151e565b60405180910390f35b6101dd60048036038101906101d8919061158c565b6106cb565b6040516101ea919061151e565b60405180910390f35b61020d6004803603810190610208919061158c565b6107a3565b60405161021a91906115c8565b60405180910390f35b61023d600480360381019061023891906115e3565b610854565b60405161024a919061151e565b60405180910390f35b61026d6004803603810190610268919061158c565b61090b565b60405161027a9190611419565b60405180910390f35b61028b6109b7565b6040516102989190611419565b60405180910390f35b6102a9610a49565b6040516102b69190611419565b60405180910390f35b6102c7610ad7565b6040516102d49190611419565b60405180910390f35b6102f760048036038101906102f29190611745565b610b65565b005b6000806000837bffffffffffffffffffffffffffffffffffffffffffffffffffffffff19167bffffffffffffffffffffffffffffffffffffffffffffffffffffffff1916815260200190815260200160002060009054906101000a900460ff169050919050565b60606001805461036f906117bd565b80601f016020809104026020016040519081016040528092919081815260200182805461039b906117bd565b80156103e85780601f106103bd576101008083540402835291602001916103e8565b820191906000526020600020905b8154815290600101906020018083116103cb57829003601f168201915b5050505050905090565b60006103fd826107a3565b90508073ffffffffffffffffffffffffffffffffffffffff168373ffffffffffffffffffffffffffffffffffffffff160361046d576040517f08c379a000000000000000000000000000000000000000000000000000000000815260040161046490611860565b60405180910390fd5b8073ffffffffffffffffffffffffffffffffffffffff163373ffffffffffffffffffffffffffffffffffffffff16146104db576040517f08c379a00000000000000000000000000000000000000000000000000000000081526004016104d2906118f2565b60405180910390fd5b826005600084815260200190815260200160002060006101000a81548173ffffffffffffffffffffffffffffffffffffffff021916908373ffffffffffffffffffffffffffffffffffffffff160217905550818373ffffffffffffffffffffffffffffffffffffffff168273ffffffffffffffffffffffffffffffffffffffff167f8c5be1e5ebec7d5bd14f71427d1e84f3dd0314c0f7b2291e5b200ac8c7c3b92560405160405180910390a4505050565b6000600680549050905090565b6105a5838383610c68565b505050565b60003073ffffffffffffffffffffffffffffffffffffffff166370a08231846040518263ffffffff1660e01b81526004016105e591906115c8565b602060405180830381865afa158015610602573d6000803e3d6000fd5b505050506040513d601f19601f820116820180604052508101906106269190611927565b8210610667576040517f08c379a000000000000000000000000000000000000000000000000000000000815260040161065e906119a0565b60405180910390fd5b600860008473ffffffffffffffffffffffffffffffffffffffff1673ffffffffffffffffffffffffffffffffffffffff16815260200190815260200160002082815481106106b8576106b76119c0565b5b9060005260206000200154905092915050565b60003073ffffffffffffffffffffffffffffffffffffffff166318160ddd6040518163ffffffff1660e01b8152600401602060405180830381865afa158015610718573d6000803e3d6000fd5b505050506040513d601f19601f8201168201806040525081019061073c9190611927565b821061077d576040517f08c379a0000000000000000000000000000000000000000000000000000000008152600401610774906119a0565b60405180910390fd5b60068281548110610791576107906119c0565b5b90600052602060002001549050919050565b6000806003600084815260200190815260200160002060009054906101000a900473ffffffffffffffffffffffffffffffffffffffff169050600073ffffffffffffffffffffffffffffffffffffffff168173ffffffffffffffffffffffffffffffffffffffff160361084b576040517f08c379a000000000000000000000000000000000000000000000000000000000815260040161084290611a61565b60405180910390fd5b80915050919050565b60008073ffffffffffffffffffffffffffffffffffffffff168273ffffffffffffffffffffffffffffffffffffffff16036108c4576040517f08c379a00000000000000000000000000000000000000000000000000000000081526004016108bb90611a61565b60405180910390fd5b600460008373ffffffffffffffffffffffffffffffffffffffff1673ffffffffffffffffffffffffffffffffffffffff168152602001908152602001600020549050919050565b600a818154811061091b57600080fd5b906000526020600020016000915090508054610936906117bd565b80601f0160208091040260200160405190810160405280929190818152602001828054610962906117bd565b80156109af5780601f10610984576101008083540402835291602001916109af565b820191906000526020600020905b81548152906001019060200180831161099257829003601f168201915b505050505081565b6060600280546109c6906117bd565b80601f01602080910402602001604051908101604052809291908181526020018280546109f2906117bd565b8015610a3f5780601f10610a1457610100808354040283529160200191610a3f565b820191906000526020600020905b815481529060010190602001808311610a2257829003601f168201915b5050505050905090565b60028054610a56906117bd565b80601f0160208091040260200160405190810160405280929190818152602001828054610a82906117bd565b8015610acf5780601f10610aa457610100808354040283529160200191610acf565b820191906000526020600020905b815481529060010190602001808311610ab257829003601f168201915b505050505081565b60018054610ae4906117bd565b80601f0160208091040260200160405190810160405280929190818152602001828054610b10906117bd565b8015610b5d5780601f10610b3257610100808354040283529160200191610b5d565b820191906000526020600020905b815481529060010190602001808311610b4057829003601f168201915b505050505081565b600b81604051610b759190611abd565b908152602001604051809103902060009054906101000a900460ff1615610bd1576040517f08c379a0000000000000000000000000000000000000000000000000000000008152600401610bc890611b20565b60405180910390fd5b600a81908060018154018082558091505060019003906000526020600020016000909190919091509080519060200190610c0c92919061120e565b5060006001600a80549050610c219190611b6f565b9050610c2d3382610ead565b6001600b83604051610c3f9190611abd565b908152602001604051809103902060006101000a81548160ff0219169083151502179055505050565b600073ffffffffffffffffffffffffffffffffffffffff168273ffffffffffffffffffffffffffffffffffffffff1603610cd7576040517f08c379a0000000000000000000000000000000000000000000000000000000008152600401610cce90611c15565b60405180910390fd5b8273ffffffffffffffffffffffffffffffffffffffff16610cf7826107a3565b73ffffffffffffffffffffffffffffffffffffffff1614610d4d576040517f08c379a0000000000000000000000000000000000000000000000000000000008152600401610d4490611ca7565b60405180910390fd5b6001600460008573ffffffffffffffffffffffffffffffffffffffff1673ffffffffffffffffffffffffffffffffffffffff1681526020019081526020016000206000828254610d9d9190611b6f565b925050819055506001600460008473ffffffffffffffffffffffffffffffffffffffff1673ffffffffffffffffffffffffffffffffffffffff1681526020019081526020016000206000828254610df49190611cc7565b92505081905550816003600083815260200190815260200160002060006101000a81548173ffffffffffffffffffffffffffffffffffffffff021916908373ffffffffffffffffffffffffffffffffffffffff160217905550808273ffffffffffffffffffffffffffffffffffffffff168473ffffffffffffffffffffffffffffffffffffffff167fddf252ad1be2c89b69c2b068fc378daa952ba7f163c4a11628f55a4df523b3ef60405160405180910390a4505050565b610eb78282610ece565b610ec08161108f565b610eca82826110d8565b5050565b600073ffffffffffffffffffffffffffffffffffffffff168273ffffffffffffffffffffffffffffffffffffffff1603610f3d576040517f08c379a0000000000000000000000000000000000000000000000000000000008152600401610f3490611d8f565b60405180910390fd5b610f468161119c565b15610f86576040517f08c379a0000000000000000000000000000000000000000000000000000000008152600401610f7d90611dfb565b60405180910390fd5b816003600083815260200190815260200160002060006101000a81548173ffffffffffffffffffffffffffffffffffffffff021916908373ffffffffffffffffffffffffffffffffffffffff1602179055506001600460008473ffffffffffffffffffffffffffffffffffffffff1673ffffffffffffffffffffffffffffffffffffffff16815260200190815260200160002060008282546110289190611cc7565b92505081905550808273ffffffffffffffffffffffffffffffffffffffff16600073ffffffffffffffffffffffffffffffffffffffff167fddf252ad1be2c89b69c2b068fc378daa952ba7f163c4a11628f55a4df523b3ef60405160405180910390a45050565b6006805490506007600083815260200190815260200160002081905550600681908060018154018082558091505060019003906000526020600020016000909190919091505550565b600860008373ffffffffffffffffffffffffffffffffffffffff1673ffffffffffffffffffffffffffffffffffffffff168152602001908152602001600020805490506009600083815260200190815260200160002081905550600860008373ffffffffffffffffffffffffffffffffffffffff1673ffffffffffffffffffffffffffffffffffffffff1681526020019081526020016000208190806001815401808255809150506001900390600052602060002001600090919091909150555050565b6000806003600084815260200190815260200160002060009054906101000a900473ffffffffffffffffffffffffffffffffffffffff169050600073ffffffffffffffffffffffffffffffffffffffff168173ffffffffffffffffffffffffffffffffffffffff161415915050919050565b82805461121a906117bd565b90600052602060002090601f01602090048101928261123c5760008555611283565b82601f1061125557805160ff1916838001178555611283565b82800160010185558215611283579182015b82811115611282578251825591602001919060010190611267565b5b5090506112909190611294565b5090565b5b808211156112ad576000816000905550600101611295565b5090565b6000604051905090565b600080fd5b600080fd5b60007fffffffff0000000000000000000000000000000000000000000000000000000082169050919050565b6112fa816112c5565b811461130557600080fd5b50565b600081359050611317816112f1565b92915050565b600060208284031215611333576113326112bb565b5b600061134184828501611308565b91505092915050565b60008115159050919050565b61135f8161134a565b82525050565b600060208201905061137a6000830184611356565b92915050565b600081519050919050565b600082825260208201905092915050565b60005b838110156113ba57808201518184015260208101905061139f565b838111156113c9576000848401525b50505050565b6000601f19601f8301169050919050565b60006113eb82611380565b6113f5818561138b565b935061140581856020860161139c565b61140e816113cf565b840191505092915050565b6000602082019050818103600083015261143381846113e0565b905092915050565b600073ffffffffffffffffffffffffffffffffffffffff82169050919050565b60006114668261143b565b9050919050565b6114768161145b565b811461148157600080fd5b50565b6000813590506114938161146d565b92915050565b6000819050919050565b6114ac81611499565b81146114b757600080fd5b50565b6000813590506114c9816114a3565b92915050565b600080604083850312156114e6576114e56112bb565b5b60006114f485828601611484565b9250506020611505858286016114ba565b9150509250929050565b61151881611499565b82525050565b6000602082019050611533600083018461150f565b92915050565b600080600060608486031215611552576115516112bb565b5b600061156086828701611484565b935050602061157186828701611484565b9250506040611582868287016114ba565b9150509250925092565b6000602082840312156115a2576115a16112bb565b5b60006115b0848285016114ba565b91505092915050565b6115c28161145b565b82525050565b60006020820190506115dd60008301846115b9565b92915050565b6000602082840312156115f9576115f86112bb565b5b600061160784828501611484565b91505092915050565b600080fd5b600080fd5b7f4e487b7100000000000000000000000000000000000000000000000000000000600052604160045260246000fd5b611652826113cf565b810181811067ffffffffffffffff821117156116715761167061161a565b5b80604052505050565b60006116846112b1565b90506116908282611649565b919050565b600067ffffffffffffffff8211156116b0576116af61161a565b5b6116b9826113cf565b9050602081019050919050565b82818337600083830152505050565b60006116e86116e384611695565b61167a565b90508281526020810184848401111561170457611703611615565b5b61170f8482856116c6565b509392505050565b600082601f83011261172c5761172b611610565b5b813561173c8482602086016116d5565b91505092915050565b60006020828403121561175b5761175a6112bb565b5b600082013567ffffffffffffffff811115611779576117786112c0565b5b61178584828501611717565b91505092915050565b7f4e487b7100000000000000000000000000000000000000000000000000000000600052602260045260246000fd5b600060028204905060018216806117d557607f821691505b6020821081036117e8576117e761178e565b5b50919050565b7f4572726f72202d20617070726f76616c20746f2063757272656e74206f776e6560008201527f7200000000000000000000000000000000000000000000000000000000000000602082015250565b600061184a60218361138b565b9150611855826117ee565b604082019050919050565b600060208201905081810360008301526118798161183d565b9050919050565b7f4572726f72202d2063757272656e742063616c6c6572206973206e6f7420746860008201527f65206f776e6572206f662074686520746f6b656e000000000000000000000000602082015250565b60006118dc60348361138b565b91506118e782611880565b604082019050919050565b6000602082019050818103600083015261190b816118cf565b9050919050565b600081519050611921816114a3565b92915050565b60006020828403121561193d5761193c6112bb565b5b600061194b84828501611912565b91505092915050565b7f476c6f62616c20696e646578206973206f7574206f6620626f756e6473210000600082015250565b600061198a601e8361138b565b915061199582611954565b602082019050919050565b600060208201905081810360008301526119b98161197d565b9050919050565b7f4e487b7100000000000000000000000000000000000000000000000000000000600052603260045260246000fd5b7f6f776e657220717565727920666f72206e6f6e6578697374656e7420746f6b6560008201527f6e00000000000000000000000000000000000000000000000000000000000000602082015250565b6000611a4b60218361138b565b9150611a56826119ef565b604082019050919050565b60006020820190508181036000830152611a7a81611a3e565b9050919050565b600081905092915050565b6000611a9782611380565b611aa18185611a81565b9350611ab181856020860161139c565b80840191505092915050565b6000611ac98284611a8c565b915081905092915050565b7f4572726f723a206b727970746f4269726420616c726561647920657869737473600082015250565b6000611b0a60208361138b565b9150611b1582611ad4565b602082019050919050565b60006020820190508181036000830152611b3981611afd565b9050919050565b7f4e487b7100000000000000000000000000000000000000000000000000000000600052601160045260246000fd5b6000611b7a82611499565b9150611b8583611499565b925082821015611b9857611b97611b40565b5b828203905092915050565b7f4572726f72202d20455243373231207472616e7366657220746f20746865207a60008201527f65726f2061646472657373000000000000000000000000000000000000000000602082015250565b6000611bff602b8361138b565b9150611c0a82611ba3565b604082019050919050565b60006020820190508181036000830152611c2e81611bf2565b9050919050565b7f4572726f72202d20747279696e6720746f207472616e73666572206120746f6b60008201527f656e20746865206164647265737320646f6573206e6f74206f776e0000000000602082015250565b6000611c91603b8361138b565b9150611c9c82611c35565b604082019050919050565b60006020820190508181036000830152611cc081611c84565b9050919050565b6000611cd282611499565b9150611cdd83611499565b9250827fffffffffffffffffffffffffffffffffffffffffffffffffffffffffffffffff03821115611d1257611d11611b40565b5b828201905092915050565b7f4552433732313a206d696e74696e6720746f20746865207a65726f206164647260008201527f6573730000000000000000000000000000000000000000000000000000000000602082015250565b6000611d7960238361138b565b9150611d8482611d1d565b604082019050919050565b60006020820190508181036000830152611da881611d6c565b9050919050565b7f4552433732313a20746f6b656e20616c7265616479206d696e74656400000000600082015250565b6000611de5601c8361138b565b9150611df082611daf565b602082019050919050565b60006020820190508181036000830152611e1481611dd8565b905091905056fea2646970667358221220e256a4d98deb71233c3f2c2787000cae28f9af6548842bcb735718fb71b870b264736f6c634300080d0033",
  "immutableReferences": {},
  "source": "// SPDX-License-Identifier: MIT\npragma solidity ^0.8.0;\n\nimport './ERC721Connector.sol';\n\ncontract KryptoBird is ERC721Connector {\n\n    // array to store our NFTs\n    string [] public kryptoBirdz;\n\n    mapping(string => bool) _kryptoBirdzExists;\n\n    function mint(string memory _kryptoBird) public {\n        \n        // require that the _kryptoBird does not already exist\n        require(!_kryptoBirdzExists[_kryptoBird], \n        'Error: kryptoBird already exists');\n\n        // Using updated method of pushing an item into an array \n        // And returning the length of that array\n        kryptoBirdz.push(_kryptoBird);\n        uint _id = kryptoBirdz.length - 1;\n\n        // calling the _mint() function from ERC721.sol contract\n        _mint(msg.sender, _id);\n\n        // keeping track of which NFTs have been minted\n        _kryptoBirdzExists[_kryptoBird] = true;\n    }\n\n    constructor() ERC721Connector('KryptoBird', 'KBIRDZ') {}\n\n}\n",
  "sourcePath": "/Users/joshuamitchell/Downloads/Blockchain_Projects/KryptoBirdz_NFT_Marketplace_Build/nft-marketplace-starter-kit-main/src/contracts/KryptoBirdz.sol",
  "compiler": {
    "name": "solc",
    "version": "0.8.13+commit.abaa5c0e.Emscripten.clang"
  },
  "schemaVersion": "3.4.5",
  "updatedAt": "2022-05-10T14:32:30.477Z",
  "devdoc": {
    "kind": "dev",
    "methods": {},
    "version": 1
  },
  "userdoc": {
    "kind": "user",
    "methods": {},
    "version": 1
  }
}